{
  "contractName": "FlightSuretyData",
  "abi": [
    {
      "inputs": [
        {
          "internalType": "address",
          "name": "airlineAddress",
          "type": "address"
        }
      ],
      "stateMutability": "nonpayable",
      "type": "constructor"
    },
    {
      "stateMutability": "payable",
      "type": "fallback"
    },
    {
      "inputs": [
        {
          "internalType": "bytes32",
          "name": "",
          "type": "bytes32"
        }
      ],
      "name": "creditedClaims",
      "outputs": [
        {
          "internalType": "uint256",
          "name": "",
          "type": "uint256"
        }
      ],
      "stateMutability": "view",
      "type": "function"
    },
    {
      "stateMutability": "payable",
      "type": "receive"
    },
    {
      "inputs": [],
      "name": "isOperational",
      "outputs": [
        {
          "internalType": "bool",
          "name": "",
          "type": "bool"
        }
      ],
      "stateMutability": "view",
      "type": "function"
    },
    {
      "inputs": [
        {
          "internalType": "bool",
          "name": "mode",
          "type": "bool"
        }
      ],
      "name": "setOperatingStatus",
      "outputs": [],
      "stateMutability": "nonpayable",
      "type": "function"
    },
    {
      "inputs": [
        {
          "internalType": "address",
          "name": "contractAddress",
          "type": "address"
        }
      ],
      "name": "authorizeCaller",
      "outputs": [],
      "stateMutability": "nonpayable",
      "type": "function"
    },
    {
      "inputs": [
        {
          "internalType": "address",
          "name": "contractAddress",
          "type": "address"
        }
      ],
      "name": "deauthorizeContract",
      "outputs": [],
      "stateMutability": "nonpayable",
      "type": "function"
    },
    {
      "inputs": [
        {
          "internalType": "address",
          "name": "airline",
          "type": "address"
        }
      ],
      "name": "registerAirline",
      "outputs": [],
      "stateMutability": "nonpayable",
      "type": "function"
    },
    {
      "inputs": [
        {
          "internalType": "address",
          "name": "airline",
          "type": "address"
        }
      ],
      "name": "isAirlineRegistered",
      "outputs": [
        {
          "internalType": "bool",
          "name": "",
          "type": "bool"
        }
      ],
      "stateMutability": "view",
      "type": "function"
    },
    {
      "inputs": [
        {
          "internalType": "address",
          "name": "airline",
          "type": "address"
        },
        {
          "internalType": "uint256",
          "name": "amount",
          "type": "uint256"
        }
      ],
      "name": "fund",
      "outputs": [],
      "stateMutability": "payable",
      "type": "function"
    },
    {
      "inputs": [
        {
          "internalType": "address",
          "name": "airline",
          "type": "address"
        }
      ],
      "name": "isFunded",
      "outputs": [
        {
          "internalType": "bool",
          "name": "",
          "type": "bool"
        }
      ],
      "stateMutability": "view",
      "type": "function"
    },
    {
      "inputs": [
        {
          "internalType": "address",
          "name": "airline",
          "type": "address"
        }
      ],
      "name": "getFunds",
      "outputs": [
        {
          "internalType": "uint256",
          "name": "amount",
          "type": "uint256"
        }
      ],
      "stateMutability": "view",
      "type": "function"
    },
    {
      "inputs": [],
      "name": "getRegisteredAirlinesCount",
      "outputs": [
        {
          "internalType": "uint256",
          "name": "",
          "type": "uint256"
        }
      ],
      "stateMutability": "view",
      "type": "function"
    },
    {
      "inputs": [
        {
          "internalType": "bytes32",
          "name": "flight",
          "type": "bytes32"
        },
        {
          "internalType": "address",
          "name": "airline",
          "type": "address"
        },
        {
          "internalType": "address",
          "name": "passenger",
          "type": "address"
        },
        {
          "internalType": "uint256",
          "name": "amount",
          "type": "uint256"
        }
      ],
      "name": "buy",
      "outputs": [],
      "stateMutability": "nonpayable",
      "type": "function"
    },
    {
      "inputs": [
        {
          "internalType": "bytes32",
          "name": "flight",
          "type": "bytes32"
        }
      ],
      "name": "creditInsurees",
      "outputs": [],
      "stateMutability": "nonpayable",
      "type": "function"
    },
    {
      "inputs": [
        {
          "internalType": "address",
          "name": "passenger",
          "type": "address"
        },
        {
          "internalType": "bytes32",
          "name": "flight",
          "type": "bytes32"
        }
      ],
      "name": "creditedAmount",
      "outputs": [
        {
          "internalType": "uint256",
          "name": "",
          "type": "uint256"
        }
      ],
      "stateMutability": "view",
      "type": "function"
    },
    {
      "inputs": [
        {
          "internalType": "address",
          "name": "passenger",
          "type": "address"
        },
        {
          "internalType": "bytes32",
          "name": "flight",
          "type": "bytes32"
        }
      ],
      "name": "pay",
      "outputs": [
        {
          "internalType": "uint256",
          "name": "",
          "type": "uint256"
        }
      ],
      "stateMutability": "nonpayable",
      "type": "function"
    },
    {
      "inputs": [],
      "name": "getContractBalance",
      "outputs": [
        {
          "internalType": "uint256",
          "name": "",
          "type": "uint256"
        }
      ],
      "stateMutability": "view",
      "type": "function"
    }
  ],
  "bytecode": "0x60806040526001600060146101000a81548160ff021916908315150217905550600160025560016003553480156200003657600080fd5b5060405162001a7f38038062001a7f83398181016040528101906200005c919062000192565b336000806101000a81548173ffffffffffffffffffffffffffffffffffffffff021916908373ffffffffffffffffffffffffffffffffffffffff16021790555060405180604001604052806001151581526020016000815250600460008373ffffffffffffffffffffffffffffffffffffffff1673ffffffffffffffffffffffffffffffffffffffff16815260200190815260200160002060008201518160000160006101000a81548160ff0219169083151502179055506020820151816001015590505050620001c4565b600080fd5b600073ffffffffffffffffffffffffffffffffffffffff82169050919050565b60006200015a826200012d565b9050919050565b6200016c816200014d565b81146200017857600080fd5b50565b6000815190506200018c8162000161565b92915050565b600060208284031215620001ab57620001aa62000128565b5b6000620001bb848285016200017b565b91505092915050565b6118ab80620001d46000396000f3fe6080604052600436106100f75760003560e01c8063791c016a1161008a578063cc2f6eba11610059578063cc2f6eba1461034f578063cd905dff14610378578063decebbce146103a3578063f77890ea146103e0576100fe565b8063791c016a146102905780637b1837de146102cd578063a56b0c18146102e9578063bdfd987714610326576100fe565b806346f8f304116100c657806346f8f304146101c25780635689b249146101ff5780636e861c0e1461023c5780636f9fb98a14610265576100fe565b8063010c5c971461010a578063110466ed146101475780632c388d5d14610170578063412a2dfe14610199576100fe565b366100fe57005b610108333461040b565b005b34801561011657600080fd5b50610131600480360381019061012c9190610f95565b610548565b60405161013e9190610fdd565b60405180910390f35b34801561015357600080fd5b5061016e60048036038101906101699190611024565b6105a1565b005b34801561017c57600080fd5b5061019760048036038101906101929190610f95565b61064c565b005b3480156101a557600080fd5b506101c060048036038101906101bb91906110bd565b610734565b005b3480156101ce57600080fd5b506101e960048036038101906101e49190611124565b610953565b6040516101f69190611173565b60405180910390f35b34801561020b57600080fd5b5061022660048036038101906102219190610f95565b6109df565b6040516102339190610fdd565b60405180910390f35b34801561024857600080fd5b50610263600480360381019061025e9190610f95565b610a3b565b005b34801561027157600080fd5b5061027a610b1b565b6040516102879190611173565b60405180910390f35b34801561029c57600080fd5b506102b760048036038101906102b29190611124565b610b23565b6040516102c49190611173565b60405180910390f35b6102e760048036038101906102e2919061118e565b61040b565b005b3480156102f557600080fd5b50610310600480360381019061030b91906111ce565b610b4a565b60405161031d9190611173565b60405180910390f35b34801561033257600080fd5b5061034d60048036038101906103489190610f95565b610b62565b005b34801561035b57600080fd5b50610376600480360381019061037191906111ce565b610d71565b005b34801561038457600080fd5b5061038d610e67565b60405161039a9190610fdd565b60405180910390f35b3480156103af57600080fd5b506103ca60048036038101906103c59190610f95565b610e7d565b6040516103d79190611173565b60405180910390f35b3480156103ec57600080fd5b506103f5610ec9565b6040516104029190611173565b60405180910390f35b600060149054906101000a900460ff1661045a576040517f08c379a00000000000000000000000000000000000000000000000000000000081526004016104519061127e565b60405180910390fd5b81600460008273ffffffffffffffffffffffffffffffffffffffff1673ffffffffffffffffffffffffffffffffffffffff16815260200190815260200160002060000160009054906101000a900460ff166104ea576040517f08c379a00000000000000000000000000000000000000000000000000000000081526004016104e1906112ea565b60405180910390fd5b81600460008573ffffffffffffffffffffffffffffffffffffffff1673ffffffffffffffffffffffffffffffffffffffff168152602001908152602001600020600101600082825461053c9190611339565b92505081905550505050565b6000600460008373ffffffffffffffffffffffffffffffffffffffff1673ffffffffffffffffffffffffffffffffffffffff16815260200190815260200160002060000160009054906101000a900460ff169050919050565b60008054906101000a900473ffffffffffffffffffffffffffffffffffffffff1673ffffffffffffffffffffffffffffffffffffffff163373ffffffffffffffffffffffffffffffffffffffff161461062f576040517f08c379a0000000000000000000000000000000000000000000000000000000008152600401610626906113db565b60405180910390fd5b80600060146101000a81548160ff02191690831515021790555050565b60008054906101000a900473ffffffffffffffffffffffffffffffffffffffff1673ffffffffffffffffffffffffffffffffffffffff163373ffffffffffffffffffffffffffffffffffffffff16146106da576040517f08c379a00000000000000000000000000000000000000000000000000000000081526004016106d1906113db565b60405180910390fd5b60018060008373ffffffffffffffffffffffffffffffffffffffff1673ffffffffffffffffffffffffffffffffffffffff16815260200190815260200160002060006101000a81548160ff02191690831515021790555050565b600060149054906101000a900460ff16610783576040517f08c379a000000000000000000000000000000000000000000000000000000000815260040161077a9061127e565b60405180910390fd5b6000600a600460008673ffffffffffffffffffffffffffffffffffffffff1673ffffffffffffffffffffffffffffffffffffffff16815260200190815260200160002060010154101590508061080e576040517f08c379a000000000000000000000000000000000000000000000000000000000815260040161080590611493565b60405180910390fd5b600061081a8487610ed3565b90506000600560008381526020019081526020016000206000015414610875576040517f08c379a000000000000000000000000000000000000000000000000000000000815260040161086c906114ff565b60405180910390fd5b604051806040016040528084815260200160001515815250600560008381526020019081526020016000206000820151816000015560208201518160010160006101000a81548160ff0219169083151502179055509050506108d7858461040b565b60066000878152602001908152602001600020849080600181540180825580915050600190039060005260206000200160009091909190916101000a81548173ffffffffffffffffffffffffffffffffffffffff021916908373ffffffffffffffffffffffffffffffffffffffff160217905550505050505050565b6000806109608484610ed3565b9050600060076000838152602001908152602001600020549050600081116109bd576040517f08c379a00000000000000000000000000000000000000000000000000000000081526004016109b490611591565b60405180910390fd5b6007600083815260200190815260200160002060009055809250505092915050565b600080600460008473ffffffffffffffffffffffffffffffffffffffff1673ffffffffffffffffffffffffffffffffffffffff168152602001908152602001600020600101549050678ac7230489e80000811015915050919050565b60008054906101000a900473ffffffffffffffffffffffffffffffffffffffff1673ffffffffffffffffffffffffffffffffffffffff163373ffffffffffffffffffffffffffffffffffffffff1614610ac9576040517f08c379a0000000000000000000000000000000000000000000000000000000008152600401610ac0906113db565b60405180910390fd5b600160008273ffffffffffffffffffffffffffffffffffffffff1673ffffffffffffffffffffffffffffffffffffffff16815260200190815260200160002060006101000a81549060ff021916905550565b600047905090565b600060076000610b338585610ed3565b815260200190815260200160002054905092915050565b60076020528060005260406000206000915090505481565b600060149054906101000a900460ff16610bb1576040517f08c379a0000000000000000000000000000000000000000000000000000000008152600401610ba89061127e565b60405180910390fd5b600160003373ffffffffffffffffffffffffffffffffffffffff1673ffffffffffffffffffffffffffffffffffffffff16815260200190815260200160002060009054906101000a900460ff16610c3d576040517f08c379a0000000000000000000000000000000000000000000000000000000008152600401610c3490611623565b60405180910390fd5b80600460008273ffffffffffffffffffffffffffffffffffffffff1673ffffffffffffffffffffffffffffffffffffffff16815260200190815260200160002060000160009054906101000a900460ff1615610cce576040517f08c379a0000000000000000000000000000000000000000000000000000000008152600401610cc59061168f565b60405180910390fd5b60405180604001604052806001151581526020016000815250600460008473ffffffffffffffffffffffffffffffffffffffff1673ffffffffffffffffffffffffffffffffffffffff16815260200190815260200160002060008201518160000160006101000a81548160ff02191690831515021790555060208201518160010155905050600160026000828254610d669190611339565b925050819055505050565b60005b6006600083815260200190815260200160002080549050811015610e63576000600660008481526020019081526020016000208281548110610db957610db86116af565b5b9060005260206000200160009054906101000a900473ffffffffffffffffffffffffffffffffffffffff1690506000610df28285610ed3565b90506000610e336002610e2560036005600087815260200190815260200160002060000154610f0690919063ffffffff16565b610f1c90919063ffffffff16565b90508060076000848152602001908152602001600020819055505050508080610e5b906116de565b915050610d74565b5050565b60008060149054906101000a900460ff16905090565b6000600460008373ffffffffffffffffffffffffffffffffffffffff1673ffffffffffffffffffffffffffffffffffffffff168152602001908152602001600020600101549050919050565b6000600254905090565b60008282604051602001610ee892919061178f565b60405160208183030381529060405280519060200120905092915050565b60008183610f1491906117bb565b905092915050565b60008183610f2a9190611844565b905092915050565b600080fd5b600073ffffffffffffffffffffffffffffffffffffffff82169050919050565b6000610f6282610f37565b9050919050565b610f7281610f57565b8114610f7d57600080fd5b50565b600081359050610f8f81610f69565b92915050565b600060208284031215610fab57610faa610f32565b5b6000610fb984828501610f80565b91505092915050565b60008115159050919050565b610fd781610fc2565b82525050565b6000602082019050610ff26000830184610fce565b92915050565b61100181610fc2565b811461100c57600080fd5b50565b60008135905061101e81610ff8565b92915050565b60006020828403121561103a57611039610f32565b5b60006110488482850161100f565b91505092915050565b6000819050919050565b61106481611051565b811461106f57600080fd5b50565b6000813590506110818161105b565b92915050565b6000819050919050565b61109a81611087565b81146110a557600080fd5b50565b6000813590506110b781611091565b92915050565b600080600080608085870312156110d7576110d6610f32565b5b60006110e587828801611072565b94505060206110f687828801610f80565b935050604061110787828801610f80565b9250506060611118878288016110a8565b91505092959194509250565b6000806040838503121561113b5761113a610f32565b5b600061114985828601610f80565b925050602061115a85828601611072565b9150509250929050565b61116d81611087565b82525050565b60006020820190506111886000830184611164565b92915050565b600080604083850312156111a5576111a4610f32565b5b60006111b385828601610f80565b92505060206111c4858286016110a8565b9150509250929050565b6000602082840312156111e4576111e3610f32565b5b60006111f284828501611072565b91505092915050565b600082825260208201905092915050565b7f436f6e74726163742069732063757272656e746c79206e6f74206f706572617460008201527f696f6e616c000000000000000000000000000000000000000000000000000000602082015250565b60006112686025836111fb565b91506112738261120c565b604082019050919050565b600060208201905081810360008301526112978161125b565b9050919050565b7f4169726c696e65206973206e6f74207265676973746572656400000000000000600082015250565b60006112d46019836111fb565b91506112df8261129e565b602082019050919050565b60006020820190508181036000830152611303816112c7565b9050919050565b7f4e487b7100000000000000000000000000000000000000000000000000000000600052601160045260246000fd5b600061134482611087565b915061134f83611087565b9250827fffffffffffffffffffffffffffffffffffffffffffffffffffffffffffffffff038211156113845761138361130a565b5b828201905092915050565b7f43616c6c6572206973206e6f7420636f6e7472616374206f776e657200000000600082015250565b60006113c5601c836111fb565b91506113d08261138f565b602082019050919050565b600060208201905081810360008301526113f4816113b8565b9050919050565b7f4169726c696e6520796f752061726520627579696e6720696e737572616e636560008201527f2066726f6d2073686f756c64206861766520636f6e747269627574656420746f60208201527f20696e737572616e63652066756e647300000000000000000000000000000000604082015250565b600061147d6050836111fb565b9150611488826113fb565b606082019050919050565b600060208201905081810360008301526114ac81611470565b9050919050565b7f50617373656e67657220697320616c726561647920696e737572656400000000600082015250565b60006114e9601c836111fb565b91506114f4826114b3565b602082019050919050565b60006020820190508181036000830152611518816114dc565b9050919050565b7f437265646974656420616d6f756e742073686f756c642062652067726561746560008201527f72207468616e207a65726f000000000000000000000000000000000000000000602082015250565b600061157b602b836111fb565b91506115868261151f565b604082019050919050565b600060208201905081810360008301526115aa8161156e565b9050919050565b7f43616c6c696e6720636f6e7472616374206973206e6f7420617574686f72697a60008201527f656420746f206163636573732064617461000000000000000000000000000000602082015250565b600061160d6031836111fb565b9150611618826115b1565b604082019050919050565b6000602082019050818103600083015261163c81611600565b9050919050565b7f4169726c696e6520697320616c72656164792072656769737465726564000000600082015250565b6000611679601d836111fb565b915061168482611643565b602082019050919050565b600060208201905081810360008301526116a88161166c565b9050919050565b7f4e487b7100000000000000000000000000000000000000000000000000000000600052603260045260246000fd5b60006116e982611087565b91507fffffffffffffffffffffffffffffffffffffffffffffffffffffffffffffffff820361171b5761171a61130a565b5b600182019050919050565b60008160601b9050919050565b600061173e82611726565b9050919050565b600061175082611733565b9050919050565b61176861176382610f57565b611745565b82525050565b6000819050919050565b61178961178482611051565b61176e565b82525050565b600061179b8285611757565b6014820191506117ab8284611778565b6020820191508190509392505050565b60006117c682611087565b91506117d183611087565b9250817fffffffffffffffffffffffffffffffffffffffffffffffffffffffffffffffff048311821515161561180a5761180961130a565b5b828202905092915050565b7f4e487b7100000000000000000000000000000000000000000000000000000000600052601260045260246000fd5b600061184f82611087565b915061185a83611087565b92508261186a57611869611815565b5b82820490509291505056fea2646970667358221220ad14dff35fcf409acab5770d5ac04cd06f52772ed1e1c7de855473128dbdb94064736f6c634300080f0033",
  "immutableReferences": {},
  "source": "// SPDX-License-Identifier: MIT\r\npragma solidity >=0.8.15 <0.9.0;\r\n\r\nimport \"@openzeppelin/contracts/utils/math/SafeMath.sol\";\r\n\r\ncontract FlightSuretyData {\r\n    using SafeMath for uint256;\r\n\r\n    /********************************************************************************************/\r\n    /*                                       DATA VARIABLES                                     */\r\n    /********************************************************************************************/\r\n\r\n    address private contractOwner; // Account used to deploy contract\r\n    bool private operational = true; // Blocks all state changes throughout the contract if false\r\n\r\n    mapping(address => bool) private authorizedCallers; // App contract addresses authorized to call this data contract\r\n\r\n    // Airlines\r\n    struct Airline {\r\n        bool isRegistered;\r\n        uint256 funds;\r\n    }\r\n    uint256 registeredAirlinesCount = 1;\r\n    uint256 fundedAirlinesCount = 1;\r\n    mapping(address => Airline) private airlines;\r\n\r\n    // Insurance\r\n    struct FlightInsurance {\r\n        uint256 amount;\r\n        bool isCredited;\r\n    }\r\n\r\n    // Flight Insurance\r\n    mapping(bytes32 => FlightInsurance) private flightInsurances; // insurance key to insurance\r\n    mapping(bytes32 => address[]) private passengers; // flight key to passengers\r\n\r\n    // Passenger Insurance Claims\r\n    mapping(bytes32 => uint256) public creditedClaims;\r\n\r\n    /********************************************************************************************/\r\n    /*                                       EVENT DEFINITIONS                                  */\r\n    /********************************************************************************************/\r\n\r\n    /**\r\n     * @dev Constructor\r\n     *      The deploying account becomes contractOwner\r\n     */\r\n    constructor(address airlineAddress) {\r\n        contractOwner = msg.sender;\r\n        airlines[airlineAddress] = Airline(true, 0);\r\n    }\r\n\r\n    /********************************************************************************************/\r\n    /*                                       FUNCTION MODIFIERS                                 */\r\n    /********************************************************************************************/\r\n\r\n    // Modifiers help avoid duplication of code. They are typically used to validate something\r\n    // before a function is allowed to be executed.\r\n\r\n    /**\r\n     * @dev Modifier that requires the \"operational\" boolean variable to be \"true\"\r\n     *      This is used on all state changing functions to pause the contract in\r\n     *      the event there is an issue that needs to be fixed\r\n     */\r\n    modifier requireIsOperational() {\r\n        require(operational, \"Contract is currently not operational\");\r\n        _; // All modifiers require an \"_\" which indicates where the function body will be added\r\n    }\r\n\r\n    /**\r\n     * @dev Modifier that requires the \"ContractOwner\" account to be the function caller\r\n     */\r\n    modifier requireContractOwner() {\r\n        require(msg.sender == contractOwner, \"Caller is not contract owner\");\r\n        _;\r\n    }\r\n\r\n    // airline modifiers\r\n    modifier requireNotAlreadyRegistered(address airline) {\r\n        require(\r\n            !airlines[airline].isRegistered,\r\n            \"Airline is already registered\"\r\n        );\r\n        _;\r\n    }\r\n\r\n    modifier requireRegistered(address airline) {\r\n        require(airlines[airline].isRegistered, \"Airline is not registered\");\r\n        _;\r\n    }\r\n\r\n    modifier requireFunded(address airline) {\r\n        require(\r\n            airlines[airline].funds >= 10 ether,\r\n            \"Airline is not sufficiently contributed to the funds\"\r\n        );\r\n        _;\r\n    }\r\n\r\n    modifier requireAuthorizedCaller() {\r\n        require(\r\n            authorizedCallers[msg.sender],\r\n            \"Calling contract is not authorized to access data\"\r\n        );\r\n        _;\r\n    }\r\n\r\n    /********************************************************************************************/\r\n    /*                                       UTILITY FUNCTIONS                                  */\r\n    /********************************************************************************************/\r\n\r\n    /**\r\n     * @dev Get operating status of contract\r\n     *\r\n     * @return A bool that is the current operating status\r\n     */\r\n    function isOperational() public view returns (bool) {\r\n        return operational;\r\n    }\r\n\r\n    /**\r\n     * @dev Sets contract operations on/off\r\n     *\r\n     * When operational mode is disabled, all write transactions except for this one will fail\r\n     */\r\n    function setOperatingStatus(bool mode) external requireContractOwner {\r\n        operational = mode;\r\n    }\r\n\r\n    /********************************************************************************************/\r\n    /*                                     SMART CONTRACT FUNCTIONS                             */\r\n    /********************************************************************************************/\r\n\r\n    function authorizeCaller(address contractAddress)\r\n        external\r\n        requireContractOwner\r\n    {\r\n        authorizedCallers[contractAddress] = true;\r\n    }\r\n\r\n    function deauthorizeContract(address contractAddress)\r\n        external\r\n        requireContractOwner\r\n    {\r\n        delete authorizedCallers[contractAddress];\r\n    }\r\n\r\n    /**\r\n     * @dev Add an airline to the registration queue\r\n     *      Can only be called from FlightSuretyApp contract\r\n     *\r\n     */\r\n    function registerAirline(address airline)\r\n        external\r\n        requireIsOperational\r\n        requireAuthorizedCaller\r\n        requireNotAlreadyRegistered(airline)\r\n    {\r\n        airlines[airline] = Airline(true, 0);\r\n        registeredAirlinesCount += 1;\r\n    }\r\n\r\n    function isAirlineRegistered(address airline) external view returns (bool) {\r\n        return airlines[airline].isRegistered;\r\n    }\r\n\r\n    /**\r\n     * @dev Initial funding for the insurance. Unless there are too many delayed flights\r\n     *      resulting in insurance payouts, the contract should be self-sustaining\r\n     *\r\n     */\r\n    function fund(address airline, uint256 amount)\r\n        public\r\n        payable\r\n        requireIsOperational\r\n        requireRegistered(airline)\r\n    {\r\n        airlines[airline].funds += amount;\r\n    }\r\n\r\n    function isFunded(address airline) external view returns (bool) {\r\n        uint256 funds = airlines[airline].funds;\r\n        return funds >= (10 ether);\r\n    }\r\n\r\n    function getFunds(address airline) external view returns (uint256 amount) {\r\n        return airlines[airline].funds;\r\n    }\r\n\r\n    function getRegisteredAirlinesCount() external view returns (uint256) {\r\n        return registeredAirlinesCount;\r\n    }\r\n\r\n    /**\r\n     * @dev Buy insurance for a flight\r\n     *\r\n     */\r\n    function buy(\r\n        bytes32 flight,\r\n        address airline,\r\n        address passenger,\r\n        uint256 amount\r\n    ) external requireIsOperational {\r\n        bool funded = airlines[airline].funds >= 10;\r\n        require(\r\n            funded,\r\n            \"Airline you are buying insurance from should have contributed to insurance funds\"\r\n        );\r\n\r\n        bytes32 insuranceKey = getInsuranceKey(passenger, flight);\r\n        require(\r\n            flightInsurances[insuranceKey].amount == 0,\r\n            \"Passenger is already insured\"\r\n        );\r\n\r\n        flightInsurances[insuranceKey] = FlightInsurance(amount, false);\r\n        fund(airline, amount);\r\n\r\n        passengers[flight].push(passenger);\r\n    }\r\n\r\n    /**\r\n     *  @dev Credits payouts to insurees\r\n     */\r\n    function creditInsurees(bytes32 flight) external {\r\n        for (uint256 i = 0; i < passengers[flight].length; i++) {\r\n            address passenger = passengers[flight][i];\r\n            bytes32 key = getInsuranceKey(passenger, flight);\r\n            uint256 amount = flightInsurances[key].amount.mul(3).div(2);\r\n\r\n            creditedClaims[key] = amount;\r\n        }\r\n    }\r\n\r\n    function creditedAmount(address passenger, bytes32 flight)\r\n        public\r\n        view\r\n        returns (uint256)\r\n    {\r\n        return creditedClaims[getInsuranceKey(passenger, flight)];\r\n    }\r\n\r\n    /**\r\n     *  @dev Transfers eligible payout funds to insuree\r\n     *\r\n     */\r\n    function pay(address passenger, bytes32 flight)\r\n        external\r\n        returns (uint256)\r\n    {\r\n        bytes32 key = getInsuranceKey(passenger, flight);\r\n        uint256 amount = creditedClaims[key];\r\n        require(amount > 0, \"Credited amount should be greater than zero\");\r\n\r\n        delete creditedClaims[key];\r\n\r\n        // payable(address(uint160(address(passenger)))).transfer(amount);\r\n        return amount;\r\n    }\r\n\r\n    function getInsuranceKey(address passenger, bytes32 flight)\r\n        internal\r\n        pure\r\n        returns (bytes32)\r\n    {\r\n        return keccak256(abi.encodePacked(passenger, flight));\r\n    }\r\n\r\n    function getFlightKey(\r\n        address airline,\r\n        string memory flight,\r\n        uint256 timestamp\r\n    ) internal pure returns (bytes32) {\r\n        return keccak256(abi.encodePacked(airline, flight, timestamp));\r\n    }\r\n\r\n    /**\r\n     * @dev Fallback function for funding smart contract.\r\n     *\r\n     */\r\n    fallback() external payable {\r\n        fund(msg.sender, msg.value);\r\n    }\r\n\r\n    receive() external payable {\r\n        // custom function code\r\n    }\r\n\r\n    function getContractBalance() external view returns (uint256) {\r\n        return address(this).balance;\r\n    }\r\n}\r\n",
  "sourcePath": "C:\\Users\\Neris\\FlightSurety\\contracts\\FlightSuretyData.sol",
  "compiler": {
    "name": "solc",
    "version": "0.8.15+commit.e14f2714.Emscripten.clang"
  },
  "schemaVersion": "3.4.8",
  "updatedAt": "2022-07-17T20:24:39.842Z",
  "devdoc": {
    "kind": "dev",
    "methods": {
      "buy(bytes32,address,address,uint256)": {
        "details": "Buy insurance for a flight"
      },
      "constructor": {
        "details": "Constructor      The deploying account becomes contractOwner"
      },
      "creditInsurees(bytes32)": {
        "details": "Credits payouts to insurees"
      },
      "fund(address,uint256)": {
        "details": "Initial funding for the insurance. Unless there are too many delayed flights      resulting in insurance payouts, the contract should be self-sustaining"
      },
      "isOperational()": {
        "details": "Get operating status of contract",
        "returns": {
          "_0": "A bool that is the current operating status"
        }
      },
      "pay(address,bytes32)": {
        "details": "Transfers eligible payout funds to insuree"
      },
      "registerAirline(address)": {
        "details": "Add an airline to the registration queue      Can only be called from FlightSuretyApp contract"
      },
      "setOperatingStatus(bool)": {
        "details": "Sets contract operations on/off When operational mode is disabled, all write transactions except for this one will fail"
      }
    },
    "version": 1
  },
  "userdoc": {
    "kind": "user",
    "methods": {},
    "version": 1
  }
}