{
  "contractName": "FlightSuretyApp",
  "abi": [
    {
      "inputs": [
        {
          "internalType": "address payable",
          "name": "flightSuretyDataAddress",
          "type": "address"
        }
      ],
      "stateMutability": "nonpayable",
      "type": "constructor"
    },
    {
      "anonymous": false,
      "inputs": [
        {
          "indexed": false,
          "internalType": "address",
          "name": "airline",
          "type": "address"
        },
        {
          "indexed": false,
          "internalType": "uint256",
          "name": "funds",
          "type": "uint256"
        }
      ],
      "name": "AirlineFunded",
      "type": "event"
    },
    {
      "anonymous": false,
      "inputs": [
        {
          "indexed": false,
          "internalType": "address",
          "name": "airline",
          "type": "address"
        },
        {
          "indexed": false,
          "internalType": "uint256",
          "name": "count",
          "type": "uint256"
        }
      ],
      "name": "AirlineRegistered",
      "type": "event"
    },
    {
      "anonymous": false,
      "inputs": [
        {
          "indexed": false,
          "internalType": "address",
          "name": "airline",
          "type": "address"
        },
        {
          "indexed": false,
          "internalType": "uint256",
          "name": "consensus",
          "type": "uint256"
        }
      ],
      "name": "AirlineRegistrationConsensus",
      "type": "event"
    },
    {
      "anonymous": false,
      "inputs": [
        {
          "indexed": false,
          "internalType": "address",
          "name": "airline",
          "type": "address"
        },
        {
          "indexed": false,
          "internalType": "string",
          "name": "flight",
          "type": "string"
        }
      ],
      "name": "CreditInsurees",
      "type": "event"
    },
    {
      "anonymous": false,
      "inputs": [
        {
          "indexed": false,
          "internalType": "address",
          "name": "airline",
          "type": "address"
        },
        {
          "indexed": false,
          "internalType": "string",
          "name": "flight",
          "type": "string"
        },
        {
          "indexed": false,
          "internalType": "uint256",
          "name": "timestamp",
          "type": "uint256"
        },
        {
          "indexed": false,
          "internalType": "uint8",
          "name": "status",
          "type": "uint8"
        }
      ],
      "name": "FlightStatusInfo",
      "type": "event"
    },
    {
      "anonymous": false,
      "inputs": [
        {
          "indexed": false,
          "internalType": "string",
          "name": "flight",
          "type": "string"
        },
        {
          "indexed": false,
          "internalType": "address",
          "name": "airline",
          "type": "address"
        },
        {
          "indexed": false,
          "internalType": "address",
          "name": "passenger",
          "type": "address"
        },
        {
          "indexed": false,
          "internalType": "uint256",
          "name": "amount",
          "type": "uint256"
        }
      ],
      "name": "InsurancePurchased",
      "type": "event"
    },
    {
      "anonymous": false,
      "inputs": [
        {
          "indexed": false,
          "internalType": "address",
          "name": "airline",
          "type": "address"
        },
        {
          "indexed": false,
          "internalType": "string",
          "name": "flight",
          "type": "string"
        },
        {
          "indexed": false,
          "internalType": "uint256",
          "name": "timestamp",
          "type": "uint256"
        },
        {
          "indexed": false,
          "internalType": "uint8",
          "name": "status",
          "type": "uint8"
        }
      ],
      "name": "OracleReport",
      "type": "event"
    },
    {
      "anonymous": false,
      "inputs": [
        {
          "indexed": false,
          "internalType": "uint8",
          "name": "index",
          "type": "uint8"
        },
        {
          "indexed": false,
          "internalType": "address",
          "name": "airline",
          "type": "address"
        },
        {
          "indexed": false,
          "internalType": "string",
          "name": "flight",
          "type": "string"
        },
        {
          "indexed": false,
          "internalType": "uint256",
          "name": "timestamp",
          "type": "uint256"
        }
      ],
      "name": "OracleRequest",
      "type": "event"
    },
    {
      "anonymous": false,
      "inputs": [
        {
          "indexed": false,
          "internalType": "address",
          "name": "passenger",
          "type": "address"
        },
        {
          "indexed": false,
          "internalType": "uint256",
          "name": "amount",
          "type": "uint256"
        }
      ],
      "name": "PassengerCredited",
      "type": "event"
    },
    {
      "inputs": [],
      "name": "REGISTRATION_FEE",
      "outputs": [
        {
          "internalType": "uint256",
          "name": "",
          "type": "uint256"
        }
      ],
      "stateMutability": "view",
      "type": "function"
    },
    {
      "inputs": [
        {
          "internalType": "address",
          "name": "",
          "type": "address"
        },
        {
          "internalType": "uint256",
          "name": "",
          "type": "uint256"
        }
      ],
      "name": "airlinesForRegistration",
      "outputs": [
        {
          "internalType": "address",
          "name": "",
          "type": "address"
        }
      ],
      "stateMutability": "view",
      "type": "function"
    },
    {
      "inputs": [],
      "name": "isOperational",
      "outputs": [
        {
          "internalType": "bool",
          "name": "",
          "type": "bool"
        }
      ],
      "stateMutability": "view",
      "type": "function"
    },
    {
      "inputs": [
        {
          "internalType": "address",
          "name": "airline",
          "type": "address"
        }
      ],
      "name": "isAirline",
      "outputs": [
        {
          "internalType": "bool",
          "name": "",
          "type": "bool"
        }
      ],
      "stateMutability": "view",
      "type": "function"
    },
    {
      "inputs": [
        {
          "internalType": "address",
          "name": "airline",
          "type": "address"
        }
      ],
      "name": "registerAirline",
      "outputs": [
        {
          "internalType": "bool",
          "name": "success",
          "type": "bool"
        },
        {
          "internalType": "uint256",
          "name": "votes",
          "type": "uint256"
        }
      ],
      "stateMutability": "payable",
      "type": "function"
    },
    {
      "inputs": [],
      "name": "fundAirline",
      "outputs": [],
      "stateMutability": "payable",
      "type": "function"
    },
    {
      "inputs": [
        {
          "internalType": "address",
          "name": "airline",
          "type": "address"
        }
      ],
      "name": "isFunded",
      "outputs": [
        {
          "internalType": "bool",
          "name": "",
          "type": "bool"
        }
      ],
      "stateMutability": "view",
      "type": "function"
    },
    {
      "inputs": [
        {
          "internalType": "string",
          "name": "flight",
          "type": "string"
        },
        {
          "internalType": "address",
          "name": "airline",
          "type": "address"
        }
      ],
      "name": "buyInsurance",
      "outputs": [],
      "stateMutability": "payable",
      "type": "function"
    },
    {
      "inputs": [
        {
          "internalType": "string",
          "name": "flight",
          "type": "string"
        },
        {
          "internalType": "address",
          "name": "airline",
          "type": "address"
        }
      ],
      "name": "creditPassenger",
      "outputs": [],
      "stateMutability": "payable",
      "type": "function"
    },
    {
      "inputs": [
        {
          "internalType": "string",
          "name": "flight",
          "type": "string"
        },
        {
          "internalType": "address",
          "name": "airline",
          "type": "address"
        }
      ],
      "name": "creditedAmount",
      "outputs": [
        {
          "internalType": "uint256",
          "name": "",
          "type": "uint256"
        }
      ],
      "stateMutability": "view",
      "type": "function"
    },
    {
      "inputs": [],
      "name": "getContractBalance",
      "outputs": [
        {
          "internalType": "uint256",
          "name": "",
          "type": "uint256"
        },
        {
          "internalType": "uint256",
          "name": "",
          "type": "uint256"
        }
      ],
      "stateMutability": "view",
      "type": "function"
    },
    {
      "inputs": [
        {
          "internalType": "string",
          "name": "flight",
          "type": "string"
        },
        {
          "internalType": "address",
          "name": "airline",
          "type": "address"
        }
      ],
      "name": "registerFlight",
      "outputs": [],
      "stateMutability": "nonpayable",
      "type": "function"
    },
    {
      "inputs": [
        {
          "internalType": "address",
          "name": "airline",
          "type": "address"
        },
        {
          "internalType": "string",
          "name": "flight",
          "type": "string"
        },
        {
          "internalType": "uint256",
          "name": "timestamp",
          "type": "uint256"
        },
        {
          "internalType": "uint8",
          "name": "statusCode",
          "type": "uint8"
        }
      ],
      "name": "processFlightStatus",
      "outputs": [],
      "stateMutability": "nonpayable",
      "type": "function"
    },
    {
      "inputs": [
        {
          "internalType": "address",
          "name": "airline",
          "type": "address"
        },
        {
          "internalType": "string",
          "name": "flight",
          "type": "string"
        },
        {
          "internalType": "uint256",
          "name": "timestamp",
          "type": "uint256"
        }
      ],
      "name": "fetchFlightStatus",
      "outputs": [],
      "stateMutability": "nonpayable",
      "type": "function"
    },
    {
      "inputs": [],
      "name": "registerOracle",
      "outputs": [],
      "stateMutability": "payable",
      "type": "function"
    },
    {
      "inputs": [],
      "name": "getMyIndexes",
      "outputs": [
        {
          "internalType": "uint8[3]",
          "name": "",
          "type": "uint8[3]"
        }
      ],
      "stateMutability": "view",
      "type": "function"
    },
    {
      "inputs": [
        {
          "internalType": "uint8",
          "name": "index",
          "type": "uint8"
        },
        {
          "internalType": "address",
          "name": "airline",
          "type": "address"
        },
        {
          "internalType": "string",
          "name": "flight",
          "type": "string"
        },
        {
          "internalType": "uint256",
          "name": "timestamp",
          "type": "uint256"
        },
        {
          "internalType": "uint8",
          "name": "statusCode",
          "type": "uint8"
        }
      ],
      "name": "submitOracleResponse",
      "outputs": [],
      "stateMutability": "nonpayable",
      "type": "function"
    }
  ],
  "bytecode": "0x60806040526000600360146101000a81548160ff021916908360ff1602179055503480156200002d57600080fd5b50604051620037ee380380620037ee833981810160405281019062000053919062000145565b336000806101000a81548173ffffffffffffffffffffffffffffffffffffffff021916908373ffffffffffffffffffffffffffffffffffffffff16021790555080600360006101000a81548173ffffffffffffffffffffffffffffffffffffffff021916908373ffffffffffffffffffffffffffffffffffffffff1602179055505062000177565b600080fd5b600073ffffffffffffffffffffffffffffffffffffffff82169050919050565b60006200010d82620000e0565b9050919050565b6200011f8162000100565b81146200012b57600080fd5b50565b6000815190506200013f8162000114565b92915050565b6000602082840312156200015e576200015d620000db565b5b60006200016e848285016200012e565b91505092915050565b61366780620001876000396000f3fe6080604052600436106100fe5760003560e01c80636f9fb98a11610095578063c10f270011610064578063c10f2700146102e2578063c829e3ef1461030b578063cd905dff14610348578063e7bdde3b14610373578063f83f11c01461039c576100fe565b80636f9fb98a1461025f5780637bafc9061461028b5780639ed18927146102a7578063bdfd9877146102b1576100fe565b80634bc8c9a4116100d15780634bc8c9a4146101a35780635689b249146101cc5780635f1cc0e61461020957806364b4f75114610234576100fe565b80630e248a1114610103578063277914cf146101405780632a48cce71461015c578063339d259014610199575b600080fd5b34801561010f57600080fd5b5061012a6004803603810190610125919061248d565b6103c5565b60405161013791906124d5565b60405180910390f35b61015a60048036038101906101559190612636565b61046a565b005b34801561016857600080fd5b50610183600480360381019061017e9190612636565b6105e5565b60405161019091906126ab565b60405180910390f35b6101a161069b565b005b3480156101af57600080fd5b506101ca60048036038101906101c59190612636565b610788565b005b3480156101d857600080fd5b506101f360048036038101906101ee919061248d565b6108e5565b60405161020091906124d5565b60405180910390f35b34801561021557600080fd5b5061021e61098a565b60405161022b919061277e565b60405180910390f35b34801561024057600080fd5b50610249610aca565b60405161025691906126ab565b60405180910390f35b34801561026b57600080fd5b50610274610ad6565b604051610282929190612799565b60405180910390f35b6102a560048036038101906102a09190612636565b610b73565b005b6102af610dd2565b005b6102cb60048036038101906102c6919061248d565b610fd9565b6040516102d99291906127c2565b60405180910390f35b3480156102ee57600080fd5b5061030960048036038101906103049190612843565b611961565b005b34801561031757600080fd5b50610332600480360381019061032d91906128da565b611cf0565b60405161033f9190612929565b60405180910390f35b34801561035457600080fd5b5061035d611d3e565b60405161036a91906124d5565b60405180910390f35b34801561037f57600080fd5b5061039a60048036038101906103959190612944565b611dd6565b005b3480156103a857600080fd5b506103c360048036038101906103be91906129c7565b611f41565b005b6000600360009054906101000a900473ffffffffffffffffffffffffffffffffffffffff1673ffffffffffffffffffffffffffffffffffffffff1663010c5c97836040518263ffffffff1660e01b81526004016104229190612929565b602060405180830381865afa15801561043f573d6000803e3d6000fd5b505050506040513d601f19601f820116820180604052508101906104639190612a62565b9050919050565b60016104ab576040517f08c379a00000000000000000000000000000000000000000000000000000000081526004016104a290612b12565b60405180910390fd5b6000341180156104c35750670de0b6b3a76400003411155b610502576040517f08c379a00000000000000000000000000000000000000000000000000000000081526004016104f990612ba4565b60405180910390fd5b600061050e8383612047565b9050600360009054906101000a900473ffffffffffffffffffffffffffffffffffffffff1673ffffffffffffffffffffffffffffffffffffffff1663412a2dfe828433346040518563ffffffff1660e01b81526004016105719493929190612bdd565b600060405180830381600087803b15801561058b57600080fd5b505af115801561059f573d6000803e3d6000fd5b505050507f7a205fe7b1002283d0cb1d3d62898634d5a0b73231e300c072192e22784d192b838333346040516105d89493929190612c99565b60405180910390a1505050565b6000806105f28484612047565b9050600360009054906101000a900473ffffffffffffffffffffffffffffffffffffffff1673ffffffffffffffffffffffffffffffffffffffff1663791c016a33836040518363ffffffff1660e01b8152600401610651929190612ce5565b602060405180830381865afa15801561066e573d6000803e3d6000fd5b505050506040513d601f19601f820116820180604052508101906106929190612d23565b91505092915050565b670de0b6b3a76400003410156106e6576040517f08c379a00000000000000000000000000000000000000000000000000000000081526004016106dd90612d9c565b60405180910390fd5b60006106f13361207a565b9050604051806040016040528060011515815260200182815250600460003373ffffffffffffffffffffffffffffffffffffffff1673ffffffffffffffffffffffffffffffffffffffff16815260200190815260200160002060008201518160000160006101000a81548160ff021916908315150217905550602082015181600101906003610781929190612342565b5090505050565b60006107948383612047565b90506002600082815260200190815260200160002060000160009054906101000a900460ff16156107fa576040517f08c379a00000000000000000000000000000000000000000000000000000000081526004016107f190612e08565b60405180910390fd5b6040518060800160405280600115158152602001600060ff1681526020014281526020018373ffffffffffffffffffffffffffffffffffffffff168152506002600083815260200190815260200160002060008201518160000160006101000a81548160ff02191690831515021790555060208201518160000160016101000a81548160ff021916908360ff1602179055506040820151816001015560608201518160020160006101000a81548173ffffffffffffffffffffffffffffffffffffffff021916908373ffffffffffffffffffffffffffffffffffffffff160217905550905050505050565b6000600360009054906101000a900473ffffffffffffffffffffffffffffffffffffffff1673ffffffffffffffffffffffffffffffffffffffff16635689b249836040518263ffffffff1660e01b81526004016109429190612929565b602060405180830381865afa15801561095f573d6000803e3d6000fd5b505050506040513d601f19601f820116820180604052508101906109839190612a62565b9050919050565b6109926123dc565b600460003373ffffffffffffffffffffffffffffffffffffffff1673ffffffffffffffffffffffffffffffffffffffff16815260200190815260200160002060000160009054906101000a900460ff16610a21576040517f08c379a0000000000000000000000000000000000000000000000000000000008152600401610a1890612e74565b60405180910390fd5b600460003373ffffffffffffffffffffffffffffffffffffffff1673ffffffffffffffffffffffffffffffffffffffff168152602001908152602001600020600101600380602002604051908101604052809291908260038015610ac0576020028201916000905b82829054906101000a900460ff1660ff1681526020019060010190602082600001049283019260010382029150808411610a895790505b5050505050905090565b670de0b6b3a764000081565b60008047600360009054906101000a900473ffffffffffffffffffffffffffffffffffffffff1673ffffffffffffffffffffffffffffffffffffffff16636f9fb98a6040518163ffffffff1660e01b8152600401602060405180830381865afa158015610b47573d6000803e3d6000fd5b505050506040513d601f19601f82011682018060405250810190610b6b9190612d23565b915091509091565b6001610bb4576040517f08c379a0000000000000000000000000000000000000000000000000000000008152600401610bab90612b12565b60405180910390fd5b6000610bc08383612047565b90506000600360009054906101000a900473ffffffffffffffffffffffffffffffffffffffff1673ffffffffffffffffffffffffffffffffffffffff1663791c016a33846040518363ffffffff1660e01b8152600401610c21929190612ce5565b602060405180830381865afa158015610c3e573d6000803e3d6000fd5b505050506040513d601f19601f82011682018060405250810190610c629190612d23565b905060008111610ca7576040517f08c379a0000000000000000000000000000000000000000000000000000000008152600401610c9e90612ee0565b60405180910390fd5b6000600360009054906101000a900473ffffffffffffffffffffffffffffffffffffffff1673ffffffffffffffffffffffffffffffffffffffff166346f8f30433856040518363ffffffff1660e01b8152600401610d06929190612ce5565b6020604051808303816000875af1158015610d25573d6000803e3d6000fd5b505050506040513d601f19601f82011682018060405250810190610d499190612d23565b90503373ffffffffffffffffffffffffffffffffffffffff166108fc829081150290604051600060405180830381858888f19350505050158015610d91573d6000803e3d6000fd5b507ffe9067d701ba2a9ca5f956902c52a3056cb785ab32a7655c01189b5a3079822f3383604051610dc3929190612f00565b60405180910390a15050505050565b600360009054906101000a900473ffffffffffffffffffffffffffffffffffffffff1673ffffffffffffffffffffffffffffffffffffffff16637b1837de33346040518363ffffffff1660e01b8152600401610e2f929190612f00565b600060405180830381600087803b158015610e4957600080fd5b505af1158015610e5d573d6000803e3d6000fd5b50505050600360009054906101000a900473ffffffffffffffffffffffffffffffffffffffff1673ffffffffffffffffffffffffffffffffffffffff16635689b249336040518263ffffffff1660e01b8152600401610ebc9190612929565b602060405180830381865afa158015610ed9573d6000803e3d6000fd5b505050506040513d601f19601f82011682018060405250810190610efd9190612a62565b15610fd7577fe3e3c2f23f7445131259937f93b9ed0c075fe06c9d702be2d7ac549d0ec5fc3233600360009054906101000a900473ffffffffffffffffffffffffffffffffffffffff1673ffffffffffffffffffffffffffffffffffffffff1663decebbce336040518263ffffffff1660e01b8152600401610f7f9190612929565b602060405180830381865afa158015610f9c573d6000803e3d6000fd5b505050506040513d601f19601f82011682018060405250810190610fc09190612d23565b604051610fce929190612f00565b60405180910390a15b565b600080600161101d576040517f08c379a000000000000000000000000000000000000000000000000000000000815260040161101490612b12565b60405180910390fd5b82600360009054906101000a900473ffffffffffffffffffffffffffffffffffffffff1673ffffffffffffffffffffffffffffffffffffffff1663010c5c97826040518263ffffffff1660e01b81526004016110799190612929565b602060405180830381865afa158015611096573d6000803e3d6000fd5b505050506040513d601f19601f820116820180604052508101906110ba9190612a62565b156110fa576040517f08c379a00000000000000000000000000000000000000000000000000000000081526004016110f190612f75565b60405180910390fd5b6004600360009054906101000a900473ffffffffffffffffffffffffffffffffffffffff1673ffffffffffffffffffffffffffffffffffffffff1663f77890ea6040518163ffffffff1660e01b8152600401602060405180830381865afa158015611169573d6000803e3d6000fd5b505050506040513d601f19601f8201168201806040525081019061118d9190612d23565b101561139857600360009054906101000a900473ffffffffffffffffffffffffffffffffffffffff1673ffffffffffffffffffffffffffffffffffffffff1663bdfd9877856040518263ffffffff1660e01b81526004016111ee9190612929565b600060405180830381600087803b15801561120857600080fd5b505af115801561121c573d6000803e3d6000fd5b50505050600360009054906101000a900473ffffffffffffffffffffffffffffffffffffffff1673ffffffffffffffffffffffffffffffffffffffff1663010c5c97856040518263ffffffff1660e01b815260040161127b9190612929565b602060405180830381865afa158015611298573d6000803e3d6000fd5b505050506040513d601f19601f820116820180604052508101906112bc9190612a62565b1561138b577f4e89f34ef1586aa7cb3ba0fb413cd5678085f191a4442e087cebf2f076f3b0a284600360009054906101000a900473ffffffffffffffffffffffffffffffffffffffff1673ffffffffffffffffffffffffffffffffffffffff1663f77890ea6040518163ffffffff1660e01b8152600401602060405180830381865afa158015611350573d6000803e3d6000fd5b505050506040513d601f19601f820116820180604052508101906113749190612d23565b604051611382929190612f00565b60405180910390a15b600160219250925061195b565b6000805b600160008773ffffffffffffffffffffffffffffffffffffffff1673ffffffffffffffffffffffffffffffffffffffff168152602001908152602001600020805490508110156114b0573373ffffffffffffffffffffffffffffffffffffffff16600160008873ffffffffffffffffffffffffffffffffffffffff1673ffffffffffffffffffffffffffffffffffffffff168152602001908152602001600020828154811061144e5761144d612f95565b5b9060005260206000200160009054906101000a900473ffffffffffffffffffffffffffffffffffffffff1673ffffffffffffffffffffffffffffffffffffffff160361149d57600191506114b0565b80806114a890612ff3565b91505061139c565b5080156114f2576040517f08c379a00000000000000000000000000000000000000000000000000000000081526004016114e9906130ad565b60405180910390fd5b600160008673ffffffffffffffffffffffffffffffffffffffff1673ffffffffffffffffffffffffffffffffffffffff168152602001908152602001600020339080600181540180825580915050600190039060005260206000200160009091909190916101000a81548173ffffffffffffffffffffffffffffffffffffffff021916908373ffffffffffffffffffffffffffffffffffffffff1602179055506000611685600360009054906101000a900473ffffffffffffffffffffffffffffffffffffffff1673ffffffffffffffffffffffffffffffffffffffff1663f77890ea6040518163ffffffff1660e01b8152600401602060405180830381865afa158015611604573d6000803e3d6000fd5b505050506040513d601f19601f820116820180604052508101906116289190612d23565b6064600160008a73ffffffffffffffffffffffffffffffffffffffff1673ffffffffffffffffffffffffffffffffffffffff1681526020019081526020016000208054905061167791906130cd565b61226090919063ffffffff16565b90507fbcd61a2db1f369d5de0c5fbd209c2eabf8ebc8a893b3ca111c17950d4a66411a86826040516116b8929190612f00565b60405180910390a16032811061190f57600360009054906101000a900473ffffffffffffffffffffffffffffffffffffffff1673ffffffffffffffffffffffffffffffffffffffff1663bdfd9877876040518263ffffffff1660e01b81526004016117239190612929565b600060405180830381600087803b15801561173d57600080fd5b505af1158015611751573d6000803e3d6000fd5b50505050600360009054906101000a900473ffffffffffffffffffffffffffffffffffffffff1673ffffffffffffffffffffffffffffffffffffffff1663010c5c97876040518263ffffffff1660e01b81526004016117b09190612929565b602060405180830381865afa1580156117cd573d6000803e3d6000fd5b505050506040513d601f19601f820116820180604052508101906117f19190612a62565b156118c0577f4e89f34ef1586aa7cb3ba0fb413cd5678085f191a4442e087cebf2f076f3b0a286600360009054906101000a900473ffffffffffffffffffffffffffffffffffffffff1673ffffffffffffffffffffffffffffffffffffffff1663f77890ea6040518163ffffffff1660e01b8152600401602060405180830381865afa158015611885573d6000803e3d6000fd5b505050506040513d601f19601f820116820180604052508101906118a99190612d23565b6040516118b7929190612f00565b60405180910390a15b60018060008873ffffffffffffffffffffffffffffffffffffffff1673ffffffffffffffffffffffffffffffffffffffff1681526020019081526020016000208054905094509450505061195b565b6000600160008873ffffffffffffffffffffffffffffffffffffffff1673ffffffffffffffffffffffffffffffffffffffff168152602001908152602001600020805490509450945050505b50915091565b8460ff16600460003373ffffffffffffffffffffffffffffffffffffffff1673ffffffffffffffffffffffffffffffffffffffff1681526020019081526020016000206001016000600381106119ba576119b9612f95565b5b602091828204019190069054906101000a900460ff1660ff161480611a4e57508460ff16600460003373ffffffffffffffffffffffffffffffffffffffff1673ffffffffffffffffffffffffffffffffffffffff168152602001908152602001600020600101600160038110611a3357611a32612f95565b5b602091828204019190069054906101000a900460ff1660ff16145b80611ac857508460ff16600460003373ffffffffffffffffffffffffffffffffffffffff1673ffffffffffffffffffffffffffffffffffffffff168152602001908152602001600020600101600260038110611aad57611aac612f95565b5b602091828204019190069054906101000a900460ff1660ff16145b611b07576040517f08c379a0000000000000000000000000000000000000000000000000000000008152600401611afe90613199565b60405180910390fd5b600085858585604051602001611b209493929190613294565b6040516020818303038152906040528051906020012090506005600082815260200190815260200160002060000160149054906101000a900460ff16611b9b576040517f08c379a0000000000000000000000000000000000000000000000000000000008152600401611b9290613350565b60405180910390fd5b6005600082815260200190815260200160002060010160008360ff1660ff168152602001908152602001600020339080600181540180825580915050600190039060005260206000200160009091909190916101000a81548173ffffffffffffffffffffffffffffffffffffffff021916908373ffffffffffffffffffffffffffffffffffffffff1602179055507f43c853095c2752648493c88b4baac4d580d2594ffb00c6f1d4242d844514f78385858585604051611c5e949392919061337f565b60405180910390a160036005600083815260200190815260200160002060010160008460ff1660ff1681526020019081526020016000208054905010611ce8577fe23f5229de535c091e3b7bec2665f5d698192d3b31393066e8987b7a05076b6c85858585604051611cd3949392919061337f565b60405180910390a1611ce785858585611dd6565b5b505050505050565b60016020528160005260406000208181548110611d0c57600080fd5b906000526020600020016000915091509054906101000a900473ffffffffffffffffffffffffffffffffffffffff1681565b6000600360009054906101000a900473ffffffffffffffffffffffffffffffffffffffff1673ffffffffffffffffffffffffffffffffffffffff1663cd905dff6040518163ffffffff1660e01b8152600401602060405180830381865afa158015611dad573d6000803e3d6000fd5b505050506040513d601f19601f82011682018060405250810190611dd19190612a62565b905090565b8373ffffffffffffffffffffffffffffffffffffffff16600073ffffffffffffffffffffffffffffffffffffffff1603611e45576040517f08c379a0000000000000000000000000000000000000000000000000000000008152600401611e3c90613417565b60405180910390fd5b601460ff168160ff161480611e605750602860ff168160ff16145b15611f3b576000611e718486612047565b9050600360009054906101000a900473ffffffffffffffffffffffffffffffffffffffff1673ffffffffffffffffffffffffffffffffffffffff1663cc2f6eba826040518263ffffffff1660e01b8152600401611ece9190613437565b600060405180830381600087803b158015611ee857600080fd5b505af1158015611efc573d6000803e3d6000fd5b505050507fa2f9ada8c3d9eea5edab1e79dc6e5040ed16765a2a7f15553e12858156142e168585604051611f31929190613452565b60405180910390a1505b50505050565b6000611f4c33612276565b9050600081858585604051602001611f679493929190613294565b604051602081830303815290604052805190602001209050336005600083815260200190815260200160002060000160006101000a81548173ffffffffffffffffffffffffffffffffffffffff021916908373ffffffffffffffffffffffffffffffffffffffff16021790555060016005600083815260200190815260200160002060000160146101000a81548160ff0219169083151502179055507f3ed01f2c3fc24c6b329d931e35b03e390d23497d22b3f90e15b600343e93df11828686866040516120389493929190613482565b60405180910390a15050505050565b6000828260405160200161205c9291906134ce565b60405160208183030381529060405280519060200120905092915050565b6120826123dc565b61208a6123dc565b61209383612276565b816000600381106120a7576120a6612f95565b5b602002019060ff16908160ff1681525050806000600381106120cc576120cb612f95565b5b6020020151816001600381106120e5576120e4612f95565b5b602002019060ff16908160ff16815250505b8060006003811061210b5761210a612f95565b5b602002015160ff168160016003811061212757612126612f95565b5b602002015160ff16036121675761213d83612276565b8160016003811061215157612150612f95565b5b602002019060ff16908160ff16815250506120f7565b8060016003811061217b5761217a612f95565b5b60200201518160026003811061219457612193612f95565b5b602002019060ff16908160ff16815250505b806000600381106121ba576121b9612f95565b5b602002015160ff16816002600381106121d6576121d5612f95565b5b602002015160ff16148061221f5750806001600381106121f9576121f8612f95565b5b602002015160ff168160026003811061221557612214612f95565b5b602002015160ff16145b156122575761222d83612276565b8160026003811061224157612240612f95565b5b602002019060ff16908160ff16815250506121a6565b80915050919050565b6000818361226e9190613525565b905092915050565b600080600a905060008160ff166003601481819054906101000a900460ff16809291906122a290613556565b91906101000a81548160ff021916908360ff16021790555060ff16436122c8919061357f565b40856040516020016122db9291906135d4565b6040516020818303038152906040528051906020012060001c6122fe9190613600565b905060fa600360149054906101000a900460ff1660ff161115612338576000600360146101000a81548160ff021916908360ff1602179055505b8092505050919050565b826003601f016020900481019282156123cb5791602002820160005b8382111561239c57835183826101000a81548160ff021916908360ff160217905550926020019260010160208160000104928301926001030261235e565b80156123c95782816101000a81549060ff021916905560010160208160000104928301926001030261239c565b505b5090506123d891906123fe565b5090565b6040518060600160405280600390602082028036833780820191505090505090565b5b808211156124175760008160009055506001016123ff565b5090565b6000604051905090565b600080fd5b600080fd5b600073ffffffffffffffffffffffffffffffffffffffff82169050919050565b600061245a8261242f565b9050919050565b61246a8161244f565b811461247557600080fd5b50565b60008135905061248781612461565b92915050565b6000602082840312156124a3576124a2612425565b5b60006124b184828501612478565b91505092915050565b60008115159050919050565b6124cf816124ba565b82525050565b60006020820190506124ea60008301846124c6565b92915050565b600080fd5b600080fd5b6000601f19601f8301169050919050565b7f4e487b7100000000000000000000000000000000000000000000000000000000600052604160045260246000fd5b612543826124fa565b810181811067ffffffffffffffff821117156125625761256161250b565b5b80604052505050565b600061257561241b565b9050612581828261253a565b919050565b600067ffffffffffffffff8211156125a1576125a061250b565b5b6125aa826124fa565b9050602081019050919050565b82818337600083830152505050565b60006125d96125d484612586565b61256b565b9050828152602081018484840111156125f5576125f46124f5565b5b6126008482856125b7565b509392505050565b600082601f83011261261d5761261c6124f0565b5b813561262d8482602086016125c6565b91505092915050565b6000806040838503121561264d5761264c612425565b5b600083013567ffffffffffffffff81111561266b5761266a61242a565b5b61267785828601612608565b925050602061268885828601612478565b9150509250929050565b6000819050919050565b6126a581612692565b82525050565b60006020820190506126c0600083018461269c565b92915050565b600060039050919050565b600081905092915050565b6000819050919050565b600060ff82169050919050565b6126fc816126e6565b82525050565b600061270e83836126f3565b60208301905092915050565b6000602082019050919050565b612730816126c6565b61273a81846126d1565b9250612745826126dc565b8060005b8381101561277657815161275d8782612702565b96506127688361271a565b925050600181019050612749565b505050505050565b60006060820190506127936000830184612727565b92915050565b60006040820190506127ae600083018561269c565b6127bb602083018461269c565b9392505050565b60006040820190506127d760008301856124c6565b6127e4602083018461269c565b9392505050565b6127f4816126e6565b81146127ff57600080fd5b50565b600081359050612811816127eb565b92915050565b61282081612692565b811461282b57600080fd5b50565b60008135905061283d81612817565b92915050565b600080600080600060a0868803121561285f5761285e612425565b5b600061286d88828901612802565b955050602061287e88828901612478565b945050604086013567ffffffffffffffff81111561289f5761289e61242a565b5b6128ab88828901612608565b93505060606128bc8882890161282e565b92505060806128cd88828901612802565b9150509295509295909350565b600080604083850312156128f1576128f0612425565b5b60006128ff85828601612478565b92505060206129108582860161282e565b9150509250929050565b6129238161244f565b82525050565b600060208201905061293e600083018461291a565b92915050565b6000806000806080858703121561295e5761295d612425565b5b600061296c87828801612478565b945050602085013567ffffffffffffffff81111561298d5761298c61242a565b5b61299987828801612608565b93505060406129aa8782880161282e565b92505060606129bb87828801612802565b91505092959194509250565b6000806000606084860312156129e0576129df612425565b5b60006129ee86828701612478565b935050602084013567ffffffffffffffff811115612a0f57612a0e61242a565b5b612a1b86828701612608565b9250506040612a2c8682870161282e565b9150509250925092565b612a3f816124ba565b8114612a4a57600080fd5b50565b600081519050612a5c81612a36565b92915050565b600060208284031215612a7857612a77612425565b5b6000612a8684828501612a4d565b91505092915050565b600082825260208201905092915050565b7f436f6e74726163742069732063757272656e746c79206e6f74206f706572617460008201527f696f6e616c000000000000000000000000000000000000000000000000000000602082015250565b6000612afc602583612a8f565b9150612b0782612aa0565b604082019050919050565b60006020820190508181036000830152612b2b81612aef565b9050919050565b7f496e737572616e636520616d6f756e742073686f756c6420626520626574776560008201527f656e203020616e64203120657468657200000000000000000000000000000000602082015250565b6000612b8e603083612a8f565b9150612b9982612b32565b604082019050919050565b60006020820190508181036000830152612bbd81612b81565b9050919050565b6000819050919050565b612bd781612bc4565b82525050565b6000608082019050612bf26000830187612bce565b612bff602083018661291a565b612c0c604083018561291a565b612c19606083018461269c565b95945050505050565b600081519050919050565b60005b83811015612c4b578082015181840152602081019050612c30565b83811115612c5a576000848401525b50505050565b6000612c6b82612c22565b612c758185612a8f565b9350612c85818560208601612c2d565b612c8e816124fa565b840191505092915050565b60006080820190508181036000830152612cb38187612c60565b9050612cc2602083018661291a565b612ccf604083018561291a565b612cdc606083018461269c565b95945050505050565b6000604082019050612cfa600083018561291a565b612d076020830184612bce565b9392505050565b600081519050612d1d81612817565b92915050565b600060208284031215612d3957612d38612425565b5b6000612d4784828501612d0e565b91505092915050565b7f526567697374726174696f6e2066656520697320726571756972656400000000600082015250565b6000612d86601c83612a8f565b9150612d9182612d50565b602082019050919050565b60006020820190508181036000830152612db581612d79565b9050919050565b7f466c6967687420697320616c7265616479207265676973746572656400000000600082015250565b6000612df2601c83612a8f565b9150612dfd82612dbc565b602082019050919050565b60006020820190508181036000830152612e2181612de5565b9050919050565b7f4e6f74207265676973746572656420617320616e206f7261636c650000000000600082015250565b6000612e5e601b83612a8f565b9150612e6982612e28565b602082019050919050565b60006020820190508181036000830152612e8d81612e51565b9050919050565b7f4e6f2062616c616e636520746f20776974686472617700000000000000000000600082015250565b6000612eca601683612a8f565b9150612ed582612e94565b602082019050919050565b60006020820190508181036000830152612ef981612ebd565b9050919050565b6000604082019050612f15600083018561291a565b612f22602083018461269c565b9392505050565b7f4169726c696e6520697320616c72656164792072656769737465726564000000600082015250565b6000612f5f601d83612a8f565b9150612f6a82612f29565b602082019050919050565b60006020820190508181036000830152612f8e81612f52565b9050919050565b7f4e487b7100000000000000000000000000000000000000000000000000000000600052603260045260246000fd5b7f4e487b7100000000000000000000000000000000000000000000000000000000600052601160045260246000fd5b6000612ffe82612692565b91507fffffffffffffffffffffffffffffffffffffffffffffffffffffffffffffffff82036130305761302f612fc4565b5b600182019050919050565b7f4169726c696e652068617320616c7265616479206265656e20766f746564206660008201527f6f72000000000000000000000000000000000000000000000000000000000000602082015250565b6000613097602283612a8f565b91506130a28261303b565b604082019050919050565b600060208201905081810360008301526130c68161308a565b9050919050565b60006130d882612692565b91506130e383612692565b9250817fffffffffffffffffffffffffffffffffffffffffffffffffffffffffffffffff048311821515161561311c5761311b612fc4565b5b828202905092915050565b7f496e64657820646f6573206e6f74206d61746368206f7261636c65207265717560008201527f6573740000000000000000000000000000000000000000000000000000000000602082015250565b6000613183602383612a8f565b915061318e82613127565b604082019050919050565b600060208201905081810360008301526131b281613176565b9050919050565b60008160f81b9050919050565b60006131d1826131b9565b9050919050565b6131e96131e4826126e6565b6131c6565b82525050565b60008160601b9050919050565b6000613207826131ef565b9050919050565b6000613219826131fc565b9050919050565b61323161322c8261244f565b61320e565b82525050565b600081905092915050565b600061324d82612c22565b6132578185613237565b9350613267818560208601612c2d565b80840191505092915050565b6000819050919050565b61328e61328982612692565b613273565b82525050565b60006132a082876131d8565b6001820191506132b08286613220565b6014820191506132c08285613242565b91506132cc828461327d565b60208201915081905095945050505050565b7f466c69676874206f722074696d657374616d7020646f206e6f74206d6174636860008201527f206f7261636c6520726571756573740000000000000000000000000000000000602082015250565b600061333a602f83612a8f565b9150613345826132de565b604082019050919050565b600060208201905081810360008301526133698161332d565b9050919050565b613379816126e6565b82525050565b6000608082019050613394600083018761291a565b81810360208301526133a68186612c60565b90506133b5604083018561269c565b6133c26060830184613370565b95945050505050565b7f4169726c696e652061646472657373206d7573742062652076616c6964000000600082015250565b6000613401601d83612a8f565b915061340c826133cb565b602082019050919050565b60006020820190508181036000830152613430816133f4565b9050919050565b600060208201905061344c6000830184612bce565b92915050565b6000604082019050613467600083018561291a565b81810360208301526134798184612c60565b90509392505050565b60006080820190506134976000830187613370565b6134a4602083018661291a565b81810360408301526134b68185612c60565b90506134c5606083018461269c565b95945050505050565b60006134da8285613242565b91506134e68284613220565b6014820191508190509392505050565b7f4e487b7100000000000000000000000000000000000000000000000000000000600052601260045260246000fd5b600061353082612692565b915061353b83612692565b92508261354b5761354a6134f6565b5b828204905092915050565b6000613561826126e6565b915060ff820361357457613573612fc4565b5b600182019050919050565b600061358a82612692565b915061359583612692565b9250828210156135a8576135a7612fc4565b5b828203905092915050565b6000819050919050565b6135ce6135c982612bc4565b6135b3565b82525050565b60006135e082856135bd565b6020820191506135f08284613220565b6014820191508190509392505050565b600061360b82612692565b915061361683612692565b925082613626576136256134f6565b5b82820690509291505056fea26469706673582212206bcf9bbac3f8b646233d250ad45b97e02e81728f618036b2ad3861b8ed2c32b964736f6c634300080f0033",
  "immutableReferences": {},
  "source": "// SPDX-License-Identifier: MIT\r\npragma solidity >=0.8.15 <0.9.0;\r\n\r\n// It's important to avoid vulnerabilities due to numeric overflow bugs\r\n// OpenZeppelin's SafeMath library, when used correctly, protects agains such bugs\r\n// More info: https://www.nccgroup.trust/us/about-us/newsroom-and-events/blog/2018/november/smart-contract-insecurity-bad-arithmetic/\r\n\r\nimport \"@openzeppelin/contracts/utils/math/SafeMath.sol\";\r\nimport \"./FlightSuretyData.sol\";\r\n\r\n/************************************************** */\r\n/* FlightSurety Smart Contract                      */\r\n/************************************************** */\r\ncontract FlightSuretyApp {\r\n    using SafeMath for uint256; // Allow SafeMath functions to be called for all uint256 types (similar to \"prototype\" in Javascript)\r\n\r\n    /********************************************************************************************/\r\n    /*                                       DATA VARIABLES                                     */\r\n    /********************************************************************************************/\r\n\r\n    // Flight status codees\r\n    uint8 private constant STATUS_CODE_UNKNOWN = 0;\r\n    uint8 private constant STATUS_CODE_ON_TIME = 10;\r\n    uint8 private constant STATUS_CODE_LATE_AIRLINE = 20;\r\n    uint8 private constant STATUS_CODE_LATE_WEATHER = 30;\r\n    uint8 private constant STATUS_CODE_LATE_TECHNICAL = 40;\r\n    uint8 private constant STATUS_CODE_LATE_OTHER = 50;\r\n\r\n    address private contractOwner; // Account used to deploy contract\r\n\r\n    // Airlines\r\n    // airline-to-register to airlines voting; for consensus checking\r\n    mapping(address => address[]) public airlinesForRegistration;\r\n\r\n    // Flights\r\n    struct Flight {\r\n        bool isRegistered;\r\n        uint8 statusCode;\r\n        uint256 updatedTimestamp;\r\n        address airline;\r\n    }\r\n    mapping(bytes32 => Flight) private flights;\r\n\r\n    /********************************************************************************************/\r\n    /*                                       EVENT DEFINITIONS                                  */\r\n    /********************************************************************************************/\r\n\r\n    event AirlineRegistered(address airline, uint256 count);\r\n    event AirlineRegistrationConsensus(address airline, uint256 consensus);\r\n    event AirlineFunded(address airline, uint256 funds);\r\n\r\n    event InsurancePurchased(\r\n        string flight,\r\n        address airline,\r\n        address passenger,\r\n        uint256 amount\r\n    );\r\n    event PassengerCredited(address passenger, uint256 amount);\r\n\r\n    event CreditInsurees(address airline, string flight);\r\n\r\n    /********************************************************************************************/\r\n    /*                                       FUNCTION MODIFIERS                                 */\r\n    /********************************************************************************************/\r\n\r\n    // Modifiers help avoid duplication of code. They are typically used to validate something\r\n    // before a function is allowed to be executed.\r\n\r\n    /**\r\n     * @dev Modifier that requires the \"operational\" boolean variable to be \"true\"\r\n     *      This is used on all state changing functions to pause the contract in\r\n     *      the event there is an issue that needs to be fixed\r\n     */\r\n    modifier requireIsOperational() {\r\n        // Modify to call data contract's status\r\n        require(true, \"Contract is currently not operational\");\r\n        _; // All modifiers require an \"_\" which indicates where the function body will be added\r\n    }\r\n\r\n    /**\r\n     * @dev Modifier that requires the \"ContractOwner\" account to be the function caller\r\n     */\r\n    modifier requireContractOwner() {\r\n        require(msg.sender == contractOwner, \"Caller is not contract owner\");\r\n        _;\r\n    }\r\n\r\n    // Reference Flight Surety data contract\r\n    FlightSuretyData flightSuretyData;\r\n\r\n    /********************************************************************************************/\r\n    /*                                       CONSTRUCTOR                                        */\r\n    /********************************************************************************************/\r\n\r\n    /**\r\n     * @dev Contract constructor\r\n     *\r\n     */\r\n    constructor(address payable flightSuretyDataAddress) {\r\n        contractOwner = msg.sender;\r\n        flightSuretyData = FlightSuretyData(flightSuretyDataAddress);\r\n    }\r\n\r\n    /********************************************************************************************/\r\n    /*                                       UTILITY FUNCTIONS                                  */\r\n    /********************************************************************************************/\r\n\r\n    function isOperational() public view returns (bool) {\r\n        return flightSuretyData.isOperational(); // Modify to call data contract's status\r\n    }\r\n\r\n    // airlines\r\n\r\n    // airline modifiers\r\n    modifier requireNotAlreadyRegistered(address airline) {\r\n        require(\r\n            !flightSuretyData.isAirlineRegistered(airline),\r\n            \"Airline is already registered\"\r\n        );\r\n        _;\r\n    }\r\n\r\n    // modifier requireFunded(address airline) {\r\n    //     require(\r\n    //         flightSuretyData.isFunded(airline),\r\n    //         \"Airline has not sufficiently contributed to the funds\"\r\n    //     );\r\n    //     _;\r\n    // }\r\n\r\n    /********************************************************************************************/\r\n    /*                                     SMART CONTRACT FUNCTIONS                             */\r\n    /********************************************************************************************/\r\n    function isAirline(address airline) external view returns (bool) {\r\n        return flightSuretyData.isAirlineRegistered(airline);\r\n    }\r\n\r\n    /**\r\n     * @dev Add an airline to the registration queue\r\n     *\r\n     */\r\n    function registerAirline(address airline)\r\n        public\r\n        payable\r\n        requireIsOperational\r\n        requireNotAlreadyRegistered(airline)\r\n        returns (bool success, uint256 votes)\r\n    {\r\n        if (flightSuretyData.getRegisteredAirlinesCount() < 4) {\r\n            flightSuretyData.registerAirline(airline);\r\n\r\n            if (flightSuretyData.isAirlineRegistered(airline)) {\r\n                emit AirlineRegistered(\r\n                    airline,\r\n                    flightSuretyData.getRegisteredAirlinesCount()\r\n                );\r\n            }\r\n\r\n            return (true, 33);\r\n        } else {\r\n            // Check consensus if more than or equal to 4 registered airlines\r\n\r\n            // Check if not already voted\r\n            bool isVoted = false;\r\n            for (\r\n                uint256 i = 0;\r\n                i < airlinesForRegistration[airline].length;\r\n                i++\r\n            ) {\r\n                if (airlinesForRegistration[airline][i] == msg.sender) {\r\n                    isVoted = true;\r\n                    break;\r\n                }\r\n            }\r\n            require(!isVoted, \"Airline has already been voted for\");\r\n\r\n            airlinesForRegistration[airline].push(msg.sender);\r\n\r\n            // Check if enough votes to register airline\r\n            uint256 consensus = (airlinesForRegistration[airline].length * 100)\r\n                .div(flightSuretyData.getRegisteredAirlinesCount());\r\n            emit AirlineRegistrationConsensus(airline, consensus);\r\n\r\n            if (consensus >= 50) {\r\n                flightSuretyData.registerAirline(airline);\r\n\r\n                if (flightSuretyData.isAirlineRegistered(airline)) {\r\n                    emit AirlineRegistered(\r\n                        airline,\r\n                        flightSuretyData.getRegisteredAirlinesCount()\r\n                    );\r\n                }\r\n\r\n                return (true, airlinesForRegistration[airline].length);\r\n            }\r\n            return (false, airlinesForRegistration[airline].length);\r\n        }\r\n    }\r\n\r\n    function fundAirline() public payable {\r\n        flightSuretyData.fund(msg.sender, msg.value);\r\n\r\n        if (flightSuretyData.isFunded(msg.sender)) {\r\n            emit AirlineFunded(\r\n                msg.sender,\r\n                flightSuretyData.getFunds(msg.sender)\r\n            );\r\n        }\r\n    }\r\n\r\n    function isFunded(address airline) external view returns (bool) {\r\n        return flightSuretyData.isFunded(airline);\r\n    }\r\n\r\n    function buyInsurance(string memory flight, address airline)\r\n        external\r\n        payable\r\n        requireIsOperational\r\n    {\r\n        // Check if amount range is greater than 0 ether and less than 1 ether.\r\n        require(\r\n            (msg.value > 0 ether) && (msg.value <= 1 ether),\r\n            \"Insurance amount should be between 0 and 1 ether\"\r\n        );\r\n\r\n        bytes32 flightKey = getFlightKey(flight, airline);\r\n\r\n        flightSuretyData.buy(flightKey, airline, msg.sender, msg.value);\r\n\r\n        emit InsurancePurchased(flight, airline, msg.sender, msg.value);\r\n    }\r\n\r\n    /**\r\n     *  @dev Transfers eligible payout funds to insuree\r\n     *\r\n     */\r\n    function creditPassenger(string memory flight, address airline)\r\n        external\r\n        payable\r\n        requireIsOperational\r\n    {\r\n        bytes32 flightKey = getFlightKey(flight, airline);\r\n        uint256 amount = flightSuretyData.creditedAmount(msg.sender, flightKey);\r\n        require(amount > 0, \"No balance to withdraw\");\r\n\r\n        uint256 credit = flightSuretyData.pay(msg.sender, flightKey);\r\n        payable(msg.sender).transfer(credit);\r\n\r\n        emit PassengerCredited(msg.sender, amount);\r\n    }\r\n\r\n    function creditedAmount(string memory flight, address airline)\r\n        external\r\n        view\r\n        returns (uint256)\r\n    {\r\n        bytes32 flightKey = getFlightKey(flight, airline);\r\n        return flightSuretyData.creditedAmount(msg.sender, flightKey);\r\n    }\r\n\r\n    function getContractBalance() external view returns(uint256, uint256){\r\n        return (address(this).balance, flightSuretyData.getContractBalance());\r\n    }\r\n\r\n    /**\r\n     * @dev Register a future flight for insuring.\r\n     *\r\n     */\r\n    function registerFlight(string memory flight, address airline) external {\r\n        bytes32 flightKey = getFlightKey(flight, airline);\r\n\r\n        require(\r\n            !flights[flightKey].isRegistered,\r\n            \"Flight is already registered\"\r\n        );\r\n\r\n        flights[flightKey] = Flight(\r\n            true,\r\n            STATUS_CODE_UNKNOWN,\r\n            block.timestamp,\r\n            airline\r\n        );\r\n    }\r\n\r\n    function getFlightKey(string memory flight, address airline)\r\n        internal\r\n        pure\r\n        returns (bytes32)\r\n    {\r\n        return keccak256(abi.encodePacked(flight, airline));\r\n    }\r\n\r\n    /**\r\n     * @dev Called after oracle has updated flight status\r\n     *\r\n     */\r\n    function processFlightStatus(\r\n        address airline,\r\n        string memory flight,\r\n        uint256 timestamp,\r\n        uint8 statusCode\r\n    ) public {\r\n        require(address(0) != airline, \"Airline address must be valid\");\r\n\r\n        // process insurance if flight delayed due to airline fault\r\n        if (\r\n            (statusCode == STATUS_CODE_LATE_AIRLINE) ||\r\n            (statusCode == STATUS_CODE_LATE_TECHNICAL)\r\n        ) {\r\n            bytes32 flightKey = getFlightKey(flight, airline);\r\n            flightSuretyData.creditInsurees(flightKey);\r\n            emit CreditInsurees(airline, flight);\r\n        }\r\n    }\r\n\r\n    // Generate a request for oracles to fetch flight information\r\n    function fetchFlightStatus(\r\n        address airline,\r\n        string memory flight,\r\n        uint256 timestamp\r\n    ) external {\r\n        uint8 index = getRandomIndex(msg.sender);\r\n\r\n        // Generate a unique key for storing the request\r\n        bytes32 key = keccak256(\r\n            abi.encodePacked(index, airline, flight, timestamp)\r\n        );\r\n\r\n        // oracleResponses[key] = ResponseInfo({\r\n        //                                         requester: msg.sender,\r\n        //                                         isOpen: true\r\n        //                                     });\r\n\r\n        oracleResponses[key].requester = msg.sender;\r\n        oracleResponses[key].isOpen = true;\r\n\r\n        emit OracleRequest(index, airline, flight, timestamp);\r\n    }\r\n\r\n    // region ORACLE MANAGEMENT\r\n\r\n    // Incremented to add pseudo-randomness at various points\r\n    uint8 private nonce = 0;\r\n\r\n    // Fee to be paid when registering oracle\r\n    uint256 public constant REGISTRATION_FEE = 1 ether;\r\n\r\n    // Number of oracles that must respond for valid status\r\n    uint256 private constant MIN_RESPONSES = 3;\r\n\r\n    struct Oracle {\r\n        bool isRegistered;\r\n        uint8[3] indexes;\r\n    }\r\n\r\n    // Track all registered oracles\r\n    mapping(address => Oracle) private oracles;\r\n\r\n    // Model for responses from oracles\r\n    struct ResponseInfo {\r\n        address requester; // Account that requested status\r\n        bool isOpen; // If open, oracle responses are accepted\r\n        mapping(uint8 => address[]) responses; // Mapping key is the status code reported\r\n        // This lets us group responses and identify\r\n        // the response that majority of the oracles\r\n    }\r\n\r\n    // Track all oracle responses\r\n    // Key = hash(index, flight, timestamp)\r\n    mapping(bytes32 => ResponseInfo) private oracleResponses;\r\n\r\n    // Event fired each time an oracle submits a response\r\n    event FlightStatusInfo(\r\n        address airline,\r\n        string flight,\r\n        uint256 timestamp,\r\n        uint8 status\r\n    );\r\n\r\n    event OracleReport(\r\n        address airline,\r\n        string flight,\r\n        uint256 timestamp,\r\n        uint8 status\r\n    );\r\n\r\n    // Event fired when flight status request is submitted\r\n    // Oracles track this and if they have a matching index\r\n    // they fetch data and submit a response\r\n    event OracleRequest(\r\n        uint8 index,\r\n        address airline,\r\n        string flight,\r\n        uint256 timestamp\r\n    );\r\n\r\n    // Register an oracle with the contract\r\n    function registerOracle() external payable {\r\n        // Require registration fee\r\n        require(msg.value >= REGISTRATION_FEE, \"Registration fee is required\");\r\n\r\n        uint8[3] memory indexes = generateIndexes(msg.sender);\r\n\r\n        oracles[msg.sender] = Oracle({isRegistered: true, indexes: indexes});\r\n    }\r\n\r\n    function getMyIndexes() external view returns (uint8[3] memory) {\r\n        require(\r\n            oracles[msg.sender].isRegistered,\r\n            \"Not registered as an oracle\"\r\n        );\r\n\r\n        return oracles[msg.sender].indexes;\r\n    }\r\n\r\n    // Called by oracle when a response is available to an outstanding request\r\n    // For the response to be accepted, there must be a pending request that is open\r\n    // and matches one of the three Indexes randomly assigned to the oracle at the\r\n    // time of registration (i.e. uninvited oracles are not welcome)\r\n    function submitOracleResponse(\r\n        uint8 index,\r\n        address airline,\r\n        string memory flight,\r\n        uint256 timestamp,\r\n        uint8 statusCode\r\n    ) external {\r\n        require(\r\n            (oracles[msg.sender].indexes[0] == index) ||\r\n                (oracles[msg.sender].indexes[1] == index) ||\r\n                (oracles[msg.sender].indexes[2] == index),\r\n            \"Index does not match oracle request\"\r\n        );\r\n\r\n        bytes32 key = keccak256(\r\n            abi.encodePacked(index, airline, flight, timestamp)\r\n        );\r\n        require(\r\n            oracleResponses[key].isOpen,\r\n            \"Flight or timestamp do not match oracle request\"\r\n        );\r\n\r\n        oracleResponses[key].responses[statusCode].push(msg.sender);\r\n\r\n        // Information isn't considered verified until at least MIN_RESPONSES\r\n        // oracles respond with the *** same *** information\r\n        emit OracleReport(airline, flight, timestamp, statusCode);\r\n        if (\r\n            oracleResponses[key].responses[statusCode].length >= MIN_RESPONSES\r\n        ) {\r\n            emit FlightStatusInfo(airline, flight, timestamp, statusCode);\r\n\r\n            // Handle flight status as appropriate\r\n            processFlightStatus(airline, flight, timestamp, statusCode);\r\n        }\r\n    }\r\n\r\n    function getFlightKey(\r\n        address airline,\r\n        string memory flight,\r\n        uint256 timestamp\r\n    ) internal pure returns (bytes32) {\r\n        return keccak256(abi.encodePacked(airline, flight, timestamp));\r\n    }\r\n\r\n    // Returns array of three non-duplicating integers from 0-9\r\n    function generateIndexes(address account)\r\n        internal\r\n        returns (uint8[3] memory)\r\n    {\r\n        uint8[3] memory indexes;\r\n        indexes[0] = getRandomIndex(account);\r\n\r\n        indexes[1] = indexes[0];\r\n        while (indexes[1] == indexes[0]) {\r\n            indexes[1] = getRandomIndex(account);\r\n        }\r\n\r\n        indexes[2] = indexes[1];\r\n        while ((indexes[2] == indexes[0]) || (indexes[2] == indexes[1])) {\r\n            indexes[2] = getRandomIndex(account);\r\n        }\r\n\r\n        return indexes;\r\n    }\r\n\r\n    // Returns array of three non-duplicating integers from 0-9\r\n    function getRandomIndex(address account) internal returns (uint8) {\r\n        uint8 maxValue = 10;\r\n\r\n        // Pseudo random number...the incrementing nonce adds variation\r\n        uint8 random = uint8(\r\n            uint256(\r\n                keccak256(\r\n                    abi.encodePacked(blockhash(block.number - nonce++), account)\r\n                )\r\n            ) % maxValue\r\n        );\r\n\r\n        if (nonce > 250) {\r\n            nonce = 0; // Can only fetch blockhashes for last 256 blocks so we adapt\r\n        }\r\n\r\n        return random;\r\n    }\r\n\r\n    // endregion\r\n}\r\n",
  "sourcePath": "C:\\Users\\Neris\\FlightSurety\\contracts\\FlightSuretyApp.sol",
  "compiler": {
    "name": "solc",
    "version": "0.8.15+commit.e14f2714.Emscripten.clang"
  },
  "schemaVersion": "3.4.8",
  "updatedAt": "2022-07-17T20:24:39.826Z",
  "devdoc": {
    "kind": "dev",
    "methods": {
      "constructor": {
        "details": "Contract constructor"
      },
      "creditPassenger(string,address)": {
        "details": "Transfers eligible payout funds to insuree"
      },
      "processFlightStatus(address,string,uint256,uint8)": {
        "details": "Called after oracle has updated flight status"
      },
      "registerAirline(address)": {
        "details": "Add an airline to the registration queue"
      },
      "registerFlight(string,address)": {
        "details": "Register a future flight for insuring."
      }
    },
    "version": 1
  },
  "userdoc": {
    "kind": "user",
    "methods": {},
    "version": 1
  }
}